{
  "address": "0x5FbDB2315678afecb367f032d93F642f64180aa3",
  "abi": [
    {
      "inputs": [],
      "stateMutability": "nonpayable",
      "type": "constructor"
    },
    {
      "inputs": [],
      "name": "AssetNotApproved",
      "type": "error"
    },
    {
      "inputs": [],
      "name": "AssetNotForSale",
      "type": "error"
    },
    {
      "inputs": [],
      "name": "NotOwner",
      "type": "error"
    },
    {
      "inputs": [],
      "name": "NotenoughToken",
      "type": "error"
    },
    {
      "inputs": [],
      "name": "OnlyAdmin",
      "type": "error"
    },
    {
      "anonymous": false,
      "inputs": [
        {
          "indexed": false,
          "internalType": "address",
          "name": "formerOwner",
          "type": "address"
        },
        {
          "indexed": false,
          "internalType": "uint256",
          "name": "assetId",
          "type": "uint256"
        },
        {
          "indexed": false,
          "internalType": "address",
          "name": "newOwner",
          "type": "address"
        },
        {
          "indexed": false,
          "internalType": "uint256",
          "name": "time",
          "type": "uint256"
        }
      ],
      "name": "soldAsset",
      "type": "event"
    },
    {
      "inputs": [
        {
          "internalType": "uint256",
          "name": "_id",
          "type": "uint256"
        }
      ],
      "name": "ApproveAsset",
      "outputs": [],
      "stateMutability": "nonpayable",
      "type": "function"
    },
    {
      "inputs": [
        {
          "internalType": "address",
          "name": "",
          "type": "address"
        }
      ],
      "name": "addressOwnerCount",
      "outputs": [
        {
          "internalType": "uint256",
          "name": "",
          "type": "uint256"
        }
      ],
      "stateMutability": "view",
      "type": "function"
    },
    {
      "inputs": [
        {
          "internalType": "uint256",
          "name": "",
          "type": "uint256"
        }
      ],
      "name": "assetToAddressOwner",
      "outputs": [
        {
          "internalType": "address",
          "name": "",
          "type": "address"
        }
      ],
      "stateMutability": "view",
      "type": "function"
    },
    {
      "inputs": [
        {
          "internalType": "uint256",
          "name": "",
          "type": "uint256"
        }
      ],
      "name": "assets",
      "outputs": [
        {
          "internalType": "address payable",
          "name": "_address",
          "type": "address"
        },
        {
          "internalType": "string",
          "name": "propertyDescription",
          "type": "string"
        },
        {
          "internalType": "uint256",
          "name": "geo_location",
          "type": "uint256"
        },
        {
          "internalType": "uint256",
          "name": "appxArea",
          "type": "uint256"
        },
        {
          "internalType": "uint256",
          "name": "value",
          "type": "uint256"
        },
        {
          "internalType": "uint256",
          "name": "time",
          "type": "uint256"
        },
        {
          "internalType": "bool",
          "name": "sell",
          "type": "bool"
        },
        {
          "internalType": "bool",
          "name": "approved",
          "type": "bool"
        }
      ],
      "stateMutability": "view",
      "type": "function"
    },
    {
      "inputs": [
        {
          "internalType": "uint256",
          "name": "_id",
          "type": "uint256"
        }
      ],
      "name": "buy",
      "outputs": [],
      "stateMutability": "payable",
      "type": "function"
    },
    {
      "inputs": [],
      "name": "getAllAssets",
      "outputs": [
        {
          "components": [
            {
              "internalType": "address payable",
              "name": "_address",
              "type": "address"
            },
            {
              "internalType": "string",
              "name": "propertyDescription",
              "type": "string"
            },
            {
              "internalType": "uint256",
              "name": "geo_location",
              "type": "uint256"
            },
            {
              "internalType": "uint256",
              "name": "appxArea",
              "type": "uint256"
            },
            {
              "internalType": "uint256",
              "name": "value",
              "type": "uint256"
            },
            {
              "internalType": "uint256",
              "name": "time",
              "type": "uint256"
            },
            {
              "internalType": "bool",
              "name": "sell",
              "type": "bool"
            },
            {
              "internalType": "bool",
              "name": "approved",
              "type": "bool"
            }
          ],
          "internalType": "struct Assets.Deeds[]",
          "name": "",
          "type": "tuple[]"
        }
      ],
      "stateMutability": "view",
      "type": "function"
    },
    {
      "inputs": [
        {
          "internalType": "string",
          "name": "propertyDescription",
          "type": "string"
        },
        {
          "internalType": "uint256",
          "name": "geo_location",
          "type": "uint256"
        },
        {
          "internalType": "uint256",
          "name": "appxArea",
          "type": "uint256"
        },
        {
          "internalType": "uint256",
          "name": "value",
          "type": "uint256"
        }
      ],
      "name": "getOwnership",
      "outputs": [],
      "stateMutability": "nonpayable",
      "type": "function"
    },
    {
      "inputs": [
        {
          "internalType": "uint256",
          "name": "_id",
          "type": "uint256"
        }
      ],
      "name": "getmyAsset",
      "outputs": [
        {
          "components": [
            {
              "internalType": "address payable",
              "name": "_address",
              "type": "address"
            },
            {
              "internalType": "string",
              "name": "propertyDescription",
              "type": "string"
            },
            {
              "internalType": "uint256",
              "name": "geo_location",
              "type": "uint256"
            },
            {
              "internalType": "uint256",
              "name": "appxArea",
              "type": "uint256"
            },
            {
              "internalType": "uint256",
              "name": "value",
              "type": "uint256"
            },
            {
              "internalType": "uint256",
              "name": "time",
              "type": "uint256"
            },
            {
              "internalType": "bool",
              "name": "sell",
              "type": "bool"
            },
            {
              "internalType": "bool",
              "name": "approved",
              "type": "bool"
            }
          ],
          "internalType": "struct Assets.Deeds",
          "name": "",
          "type": "tuple"
        }
      ],
      "stateMutability": "view",
      "type": "function"
    },
    {
      "inputs": [],
      "name": "giftOwnership",
      "outputs": [],
      "stateMutability": "nonpayable",
      "type": "function"
    },
    {
      "inputs": [],
      "name": "inheritOwnership",
      "outputs": [],
      "stateMutability": "nonpayable",
      "type": "function"
    },
    {
      "inputs": [],
      "name": "issueDeeds",
      "outputs": [],
      "stateMutability": "nonpayable",
      "type": "function"
    },
    {
      "inputs": [
        {
          "internalType": "address",
          "name": "",
          "type": "address"
        }
      ],
      "name": "ownersToDeeds",
      "outputs": [
        {
          "internalType": "address payable",
          "name": "_address",
          "type": "address"
        },
        {
          "internalType": "string",
          "name": "propertyDescription",
          "type": "string"
        },
        {
          "internalType": "uint256",
          "name": "geo_location",
          "type": "uint256"
        },
        {
          "internalType": "uint256",
          "name": "appxArea",
          "type": "uint256"
        },
        {
          "internalType": "uint256",
          "name": "value",
          "type": "uint256"
        },
        {
          "internalType": "uint256",
          "name": "time",
          "type": "uint256"
        },
        {
          "internalType": "bool",
          "name": "sell",
          "type": "bool"
        },
        {
          "internalType": "bool",
          "name": "approved",
          "type": "bool"
        }
      ],
      "stateMutability": "view",
      "type": "function"
    },
    {
      "inputs": [],
      "name": "partOwnership",
      "outputs": [],
      "stateMutability": "nonpayable",
      "type": "function"
    },
    {
      "inputs": [
        {
          "internalType": "address",
          "name": "_address",
          "type": "address"
        }
      ],
      "name": "retrieveOwnersAssets",
      "outputs": [
        {
          "internalType": "uint256[]",
          "name": "",
          "type": "uint256[]"
        }
      ],
      "stateMutability": "view",
      "type": "function"
    },
    {
      "inputs": [
        {
          "internalType": "uint256",
          "name": "_id",
          "type": "uint256"
        }
      ],
      "name": "sellProperty",
      "outputs": [],
      "stateMutability": "nonpayable",
      "type": "function"
    },
    {
      "inputs": [
        {
          "internalType": "uint256",
          "name": "_id",
          "type": "uint256"
        }
      ],
      "name": "updateValue",
      "outputs": [],
      "stateMutability": "nonpayable",
      "type": "function"
    }
  ],
  "transactionHash": "0x2924a4dbf4c3dfb3f0228f51591b8e9cb8c8c03a52820226245d20c510008b51",
  "args": [],
  "numDeployments": 1,
  "solcInputHash": "93bab7c6c4b696a14a92eef1ceded5d8",
  "bytecode": "0x608060405234801561001057600080fd5b5033600460006101000a81548173ffffffffffffffffffffffffffffffffffffffff021916908373ffffffffffffffffffffffffffffffffffffffff160217905550612344806100616000396000f3fe6080604052600436106100f35760003560e01c8063ce85984f1161008a578063e39659ee11610059578063e39659ee14610327578063f17f9f9c1461033e578063f802f00f14610355578063fd09465814610392576100f3565b8063ce85984f14610246578063cf35bdd014610283578063d6146718146102c7578063d96a094a1461030b576100f3565b8063573c0bd3116100c6578063573c0bd3146101a05780638e0a9345146101c957806398e909df14610206578063c8d2acff1461022f576100f3565b80630891d448146100f8578063094157fa146101355780632acada4d1461015e57806350241e8f14610189575b600080fd5b34801561010457600080fd5b5061011f600480360381019061011a9190611609565b6103bb565b60405161012c91906116fe565b60405180910390f35b34801561014157600080fd5b5061015c6004803603810190610157919061174c565b61050d565b005b34801561016a57600080fd5b50610173610668565b60405161018091906119b7565b60405180910390f35b34801561019557600080fd5b5061019e61080e565b005b3480156101ac57600080fd5b506101c760048036038101906101c2919061174c565b610810565b005b3480156101d557600080fd5b506101f060048036038101906101eb919061174c565b610813565b6040516101fd91906119e8565b60405180910390f35b34801561021257600080fd5b5061022d6004803603810190610228919061174c565b610846565b005b34801561023b57600080fd5b5061024461090e565b005b34801561025257600080fd5b5061026d60048036038101906102689190611609565b610910565b60405161027a9190611a12565b60405180910390f35b34801561028f57600080fd5b506102aa60048036038101906102a5919061174c565b610928565b6040516102be989796959493929190611a95565b60405180910390f35b3480156102d357600080fd5b506102ee60048036038101906102e99190611609565b610a42565b604051610302989796959493929190611a95565b60405180910390f35b6103256004803603810190610320919061174c565b610b4c565b005b34801561033357600080fd5b5061033c610d51565b005b34801561034a57600080fd5b50610353610d53565b005b34801561036157600080fd5b5061037c6004803603810190610377919061174c565b610d55565b6040516103899190611bca565b60405180910390f35b34801561039e57600080fd5b506103b960048036038101906103b49190611d21565b610ed8565b005b60606000600260008473ffffffffffffffffffffffffffffffffffffffff1673ffffffffffffffffffffffffffffffffffffffff1681526020019081526020016000205467ffffffffffffffff81111561041857610417611bf6565b5b6040519080825280602002602001820160405280156104465781602001602082028036833780820191505090505b5090506000805b600080549050811015610502578473ffffffffffffffffffffffffffffffffffffffff166003600083815260200190815260200160002060009054906101000a900473ffffffffffffffffffffffffffffffffffffffff1673ffffffffffffffffffffffffffffffffffffffff16036104ef57808383815181106104d4576104d3611da4565b5b60200260200101818152505081806104eb90611e02565b9250505b80806104fa90611e02565b91505061044d565b508192505050919050565b600015156000828154811061052557610524611da4565b5b906000526020600020906007020160060160019054906101000a900460ff1615150361057d576040517fc92ebfdd00000000000000000000000000000000000000000000000000000000815260040160405180910390fd5b6000818154811061059157610590611da4565b5b906000526020600020906007020160000160009054906101000a900473ffffffffffffffffffffffffffffffffffffffff1673ffffffffffffffffffffffffffffffffffffffff163373ffffffffffffffffffffffffffffffffffffffff1614610627576040517f30cd747100000000000000000000000000000000000000000000000000000000815260040160405180910390fd5b60016000828154811061063d5761063c611da4565b5b906000526020600020906007020160060160006101000a81548160ff02191690831515021790555050565b60606000805480602002602001604051908101604052809291908181526020016000905b828210156108055783829060005260206000209060070201604051806101000160405290816000820160009054906101000a900473ffffffffffffffffffffffffffffffffffffffff1673ffffffffffffffffffffffffffffffffffffffff1673ffffffffffffffffffffffffffffffffffffffff16815260200160018201805461071690611e79565b80601f016020809104026020016040519081016040528092919081815260200182805461074290611e79565b801561078f5780601f106107645761010080835404028352916020019161078f565b820191906000526020600020905b81548152906001019060200180831161077257829003601f168201915b50505050508152602001600282015481526020016003820154815260200160048201548152602001600582015481526020016006820160009054906101000a900460ff161515151581526020016006820160019054906101000a900460ff1615151515815250508152602001906001019061068c565b50505050905090565b565b50565b60036020528060005260406000206000915054906101000a900473ffffffffffffffffffffffffffffffffffffffff1681565b600460009054906101000a900473ffffffffffffffffffffffffffffffffffffffff1673ffffffffffffffffffffffffffffffffffffffff163373ffffffffffffffffffffffffffffffffffffffff16146108cd576040517f4755657900000000000000000000000000000000000000000000000000000000815260040160405180910390fd5b6001600082815481106108e3576108e2611da4565b5b906000526020600020906007020160060160016101000a81548160ff02191690831515021790555050565b565b60026020528060005260406000206000915090505481565b6000818154811061093857600080fd5b90600052602060002090600702016000915090508060000160009054906101000a900473ffffffffffffffffffffffffffffffffffffffff169080600101805461098190611e79565b80601f01602080910402602001604051908101604052809291908181526020018280546109ad90611e79565b80156109fa5780601f106109cf576101008083540402835291602001916109fa565b820191906000526020600020905b8154815290600101906020018083116109dd57829003601f168201915b5050505050908060020154908060030154908060040154908060050154908060060160009054906101000a900460ff16908060060160019054906101000a900460ff16905088565b60016020528060005260406000206000915090508060000160009054906101000a900473ffffffffffffffffffffffffffffffffffffffff1690806001018054610a8b90611e79565b80601f0160208091040260200160405190810160405280929190818152602001828054610ab790611e79565b8015610b045780601f10610ad957610100808354040283529160200191610b04565b820191906000526020600020905b815481529060010190602001808311610ae757829003601f168201915b5050505050908060020154908060030154908060040154908060050154908060060160009054906101000a900460ff16908060060160019054906101000a900460ff16905088565b8060008181548110610b6157610b60611da4565b5b906000526020600020906007020160040154341015610bac576040517fa25dc2d800000000000000000000000000000000000000000000000000000000815260040160405180910390fd5b6001151560008281548110610bc457610bc3611da4565b5b906000526020600020906007020160060160009054906101000a900460ff16151514610c1c576040517f3851581300000000000000000000000000000000000000000000000000000000815260040160405180910390fd5b6000808381548110610c3157610c30611da4565b5b906000526020600020906007020160000160009054906101000a900473ffffffffffffffffffffffffffffffffffffffff16905060008173ffffffffffffffffffffffffffffffffffffffff1634604051610c8b90611edb565b60006040518083038185875af1925050503d8060008114610cc8576040519150601f19603f3d011682016040523d82523d6000602084013e610ccd565b606091505b5050905080610cdb57600080fd5b3460008581548110610cf057610cef611da4565b5b906000526020600020906007020160040181905550610d0e846111ec565b7ff8466556ca41e07bdf9be20e2fc495ad9a38a37d476cd8c24dc5486231115b0882853342604051610d439493929190611ef0565b60405180910390a150505050565b565b565b610d5d611538565b60008281548110610d7157610d70611da4565b5b9060005260206000209060070201604051806101000160405290816000820160009054906101000a900473ffffffffffffffffffffffffffffffffffffffff1673ffffffffffffffffffffffffffffffffffffffff1673ffffffffffffffffffffffffffffffffffffffff168152602001600182018054610df190611e79565b80601f0160208091040260200160405190810160405280929190818152602001828054610e1d90611e79565b8015610e6a5780601f10610e3f57610100808354040283529160200191610e6a565b820191906000526020600020905b815481529060010190602001808311610e4d57829003601f168201915b50505050508152602001600282015481526020016003820154815260200160048201548152602001600582015481526020016006820160009054906101000a900460ff161515151581526020016006820160019054906101000a900460ff1615151515815250509050919050565b60006040518061010001604052803373ffffffffffffffffffffffffffffffffffffffff168152602001868152602001858152602001848152602001838152602001428152602001600015158152602001600015158152509050600081908060018154018082558091505060019003906000526020600020906007020160009091909190915060008201518160000160006101000a81548173ffffffffffffffffffffffffffffffffffffffff021916908373ffffffffffffffffffffffffffffffffffffffff1602179055506020820151816001019081610fba91906120e1565b5060408201518160020155606082015181600301556080820151816004015560a0820151816005015560c08201518160060160006101000a81548160ff02191690831515021790555060e08201518160060160016101000a81548160ff021916908315150217905550505080600160003373ffffffffffffffffffffffffffffffffffffffff1673ffffffffffffffffffffffffffffffffffffffff16815260200190815260200160002060008201518160000160006101000a81548173ffffffffffffffffffffffffffffffffffffffff021916908373ffffffffffffffffffffffffffffffffffffffff16021790555060208201518160010190816110c191906120e1565b5060408201518160020155606082015181600301556080820151816004015560a0820151816005015560c08201518160060160006101000a81548160ff02191690831515021790555060e08201518160060160016101000a81548160ff021916908315150217905550905050600260003373ffffffffffffffffffffffffffffffffffffffff1673ffffffffffffffffffffffffffffffffffffffff168152602001908152602001600020600081548092919061117d90611e02565b91905055503360036000600160008054905061119991906121b3565b815260200190815260200160002060006101000a81548173ffffffffffffffffffffffffffffffffffffffff021916908373ffffffffffffffffffffffffffffffffffffffff1602179055505050505050565b600080828154811061120157611200611da4565b5b906000526020600020906007020160000160009054906101000a900473ffffffffffffffffffffffffffffffffffffffff169050600260008273ffffffffffffffffffffffffffffffffffffffff1673ffffffffffffffffffffffffffffffffffffffff1681526020019081526020016000206000815480929190611285906121e7565b9190505550336000838154811061129f5761129e611da4565b5b906000526020600020906007020160000160006101000a81548173ffffffffffffffffffffffffffffffffffffffff021916908373ffffffffffffffffffffffffffffffffffffffff160217905550600260003373ffffffffffffffffffffffffffffffffffffffff1673ffffffffffffffffffffffffffffffffffffffff168152602001908152602001600020600081548092919061133e90611e02565b9190505550336003600084815260200190815260200160002060006101000a81548173ffffffffffffffffffffffffffffffffffffffff021916908373ffffffffffffffffffffffffffffffffffffffff160217905550600082815481106113a9576113a8611da4565b5b9060005260206000209060070201600160003373ffffffffffffffffffffffffffffffffffffffff1673ffffffffffffffffffffffffffffffffffffffff1681526020019081526020016000206000820160009054906101000a900473ffffffffffffffffffffffffffffffffffffffff168160000160006101000a81548173ffffffffffffffffffffffffffffffffffffffff021916908373ffffffffffffffffffffffffffffffffffffffff160217905550600182018160010190816114719190612226565b50600282015481600201556003820154816003015560048201548160040155600582015481600501556006820160009054906101000a900460ff168160060160006101000a81548160ff0219169083151502179055506006820160019054906101000a900460ff168160060160016101000a81548160ff021916908315150217905550905050600080838154811061150c5761150b611da4565b5b906000526020600020906007020160060160006101000a81548160ff0219169083151502179055505050565b604051806101000160405280600073ffffffffffffffffffffffffffffffffffffffff16815260200160608152602001600081526020016000815260200160008152602001600081526020016000151581526020016000151581525090565b6000604051905090565b600080fd5b600080fd5b600073ffffffffffffffffffffffffffffffffffffffff82169050919050565b60006115d6826115ab565b9050919050565b6115e6816115cb565b81146115f157600080fd5b50565b600081359050611603816115dd565b92915050565b60006020828403121561161f5761161e6115a1565b5b600061162d848285016115f4565b91505092915050565b600081519050919050565b600082825260208201905092915050565b6000819050602082019050919050565b6000819050919050565b61167581611662565b82525050565b6000611687838361166c565b60208301905092915050565b6000602082019050919050565b60006116ab82611636565b6116b58185611641565b93506116c083611652565b8060005b838110156116f15781516116d8888261167b565b97506116e383611693565b9250506001810190506116c4565b5085935050505092915050565b6000602082019050818103600083015261171881846116a0565b905092915050565b61172981611662565b811461173457600080fd5b50565b60008135905061174681611720565b92915050565b600060208284031215611762576117616115a1565b5b600061177084828501611737565b91505092915050565b600081519050919050565b600082825260208201905092915050565b6000819050602082019050919050565b60006117b0826115ab565b9050919050565b6117c0816117a5565b82525050565b600081519050919050565b600082825260208201905092915050565b60005b838110156118005780820151818401526020810190506117e5565b60008484015250505050565b6000601f19601f8301169050919050565b6000611828826117c6565b61183281856117d1565b93506118428185602086016117e2565b61184b8161180c565b840191505092915050565b60008115159050919050565b61186b81611856565b82525050565b60006101008301600083015161188a60008601826117b7565b50602083015184820360208601526118a2828261181d565b91505060408301516118b7604086018261166c565b5060608301516118ca606086018261166c565b5060808301516118dd608086018261166c565b5060a08301516118f060a086018261166c565b5060c083015161190360c0860182611862565b5060e083015161191660e0860182611862565b508091505092915050565b600061192d8383611871565b905092915050565b6000602082019050919050565b600061194d82611779565b6119578185611784565b93508360208202850161196985611795565b8060005b858110156119a557848403895281516119868582611921565b945061199183611935565b925060208a0199505060018101905061196d565b50829750879550505050505092915050565b600060208201905081810360008301526119d18184611942565b905092915050565b6119e2816115cb565b82525050565b60006020820190506119fd60008301846119d9565b92915050565b611a0c81611662565b82525050565b6000602082019050611a276000830184611a03565b92915050565b611a36816117a5565b82525050565b600082825260208201905092915050565b6000611a58826117c6565b611a628185611a3c565b9350611a728185602086016117e2565b611a7b8161180c565b840191505092915050565b611a8f81611856565b82525050565b600061010082019050611aab600083018b611a2d565b8181036020830152611abd818a611a4d565b9050611acc6040830189611a03565b611ad96060830188611a03565b611ae66080830187611a03565b611af360a0830186611a03565b611b0060c0830185611a86565b611b0d60e0830184611a86565b9998505050505050505050565b600061010083016000830151611b3360008601826117b7565b5060208301518482036020860152611b4b828261181d565b9150506040830151611b60604086018261166c565b506060830151611b73606086018261166c565b506080830151611b86608086018261166c565b5060a0830151611b9960a086018261166c565b5060c0830151611bac60c0860182611862565b5060e0830151611bbf60e0860182611862565b508091505092915050565b60006020820190508181036000830152611be48184611b1a565b905092915050565b600080fd5b600080fd5b7f4e487b7100000000000000000000000000000000000000000000000000000000600052604160045260246000fd5b611c2e8261180c565b810181811067ffffffffffffffff82111715611c4d57611c4c611bf6565b5b80604052505050565b6000611c60611597565b9050611c6c8282611c25565b919050565b600067ffffffffffffffff821115611c8c57611c8b611bf6565b5b611c958261180c565b9050602081019050919050565b82818337600083830152505050565b6000611cc4611cbf84611c71565b611c56565b905082815260208101848484011115611ce057611cdf611bf1565b5b611ceb848285611ca2565b509392505050565b600082601f830112611d0857611d07611bec565b5b8135611d18848260208601611cb1565b91505092915050565b60008060008060808587031215611d3b57611d3a6115a1565b5b600085013567ffffffffffffffff811115611d5957611d586115a6565b5b611d6587828801611cf3565b9450506020611d7687828801611737565b9350506040611d8787828801611737565b9250506060611d9887828801611737565b91505092959194509250565b7f4e487b7100000000000000000000000000000000000000000000000000000000600052603260045260246000fd5b7f4e487b7100000000000000000000000000000000000000000000000000000000600052601160045260246000fd5b6000611e0d82611662565b91507fffffffffffffffffffffffffffffffffffffffffffffffffffffffffffffffff8203611e3f57611e3e611dd3565b5b600182019050919050565b7f4e487b7100000000000000000000000000000000000000000000000000000000600052602260045260246000fd5b60006002820490506001821680611e9157607f821691505b602082108103611ea457611ea3611e4a565b5b50919050565b600081905092915050565b50565b6000611ec5600083611eaa565b9150611ed082611eb5565b600082019050919050565b6000611ee682611eb8565b9150819050919050565b6000608082019050611f0560008301876119d9565b611f126020830186611a03565b611f1f60408301856119d9565b611f2c6060830184611a03565b95945050505050565b60008190508160005260206000209050919050565b60006020601f8301049050919050565b600082821b905092915050565b600060088302611f977fffffffffffffffffffffffffffffffffffffffffffffffffffffffffffffffff82611f5a565b611fa18683611f5a565b95508019841693508086168417925050509392505050565b6000819050919050565b6000611fde611fd9611fd484611662565b611fb9565b611662565b9050919050565b6000819050919050565b611ff883611fc3565b61200c61200482611fe5565b848454611f67565b825550505050565b600090565b612021612014565b61202c818484611fef565b505050565b5b8181101561205057612045600082612019565b600181019050612032565b5050565b601f8211156120955761206681611f35565b61206f84611f4a565b8101602085101561207e578190505b61209261208a85611f4a565b830182612031565b50505b505050565b600082821c905092915050565b60006120b86000198460080261209a565b1980831691505092915050565b60006120d183836120a7565b9150826002028217905092915050565b6120ea826117c6565b67ffffffffffffffff81111561210357612102611bf6565b5b61210d8254611e79565b612118828285612054565b600060209050601f83116001811461214b5760008415612139578287015190505b61214385826120c5565b8655506121ab565b601f19841661215986611f35565b60005b828110156121815784890151825560018201915060208501945060208101905061215c565b8683101561219e578489015161219a601f8916826120a7565b8355505b6001600288020188555050505b505050505050565b60006121be82611662565b91506121c983611662565b92508282039050818111156121e1576121e0611dd3565b5b92915050565b60006121f282611662565b91506000820361220557612204611dd3565b5b600182039050919050565b60008154905061221f81611e79565b9050919050565b81810361223457505061230c565b61223d82612210565b67ffffffffffffffff81111561225657612255611bf6565b5b6122608254611e79565b61226b828285612054565b6000601f83116001811461229a5760008415612288578287015490505b61229285826120c5565b865550612305565b601f1984166122a887611f35565b96506122b386611f35565b60005b828110156122db578489015482556001820191506001850194506020810190506122b6565b868310156122f857848901546122f4601f8916826120a7565b8355505b6001600288020188555050505b5050505050505b56fea26469706673582212209d54c360f6842a63811fc1725f51a51ee431ae17d80175eeb01b635502a9cb9864736f6c63430008110033",
  "devdoc": {
    "kind": "dev",
    "methods": {},
    "version": 1
  },
  "userdoc": {
    "kind": "user",
    "methods": {},
    "version": 1
  },
  "storageLayout": {
    "storage": [
      {
        "astId": 15,
        "contract": "contracts/Assets.sol:Assets",
        "label": "assets",
        "offset": 0,
        "slot": "0",
        "type": "t_array(t_struct(Deeds)66_storage)dyn_storage"
      },
      {
        "astId": 20,
        "contract": "contracts/Assets.sol:Assets",
        "label": "ownersToDeeds",
        "offset": 0,
        "slot": "1",
        "type": "t_mapping(t_address,t_struct(Deeds)66_storage)"
      },
      {
        "astId": 24,
        "contract": "contracts/Assets.sol:Assets",
        "label": "addressOwnerCount",
        "offset": 0,
        "slot": "2",
        "type": "t_mapping(t_address,t_uint256)"
      },
      {
        "astId": 28,
        "contract": "contracts/Assets.sol:Assets",
        "label": "assetToAddressOwner",
        "offset": 0,
        "slot": "3",
        "type": "t_mapping(t_uint256,t_address)"
      },
      {
        "astId": 40,
        "contract": "contracts/Assets.sol:Assets",
        "label": "owner",
        "offset": 0,
        "slot": "4",
        "type": "t_address"
      }
    ],
    "types": {
      "t_address": {
        "encoding": "inplace",
        "label": "address",
        "numberOfBytes": "20"
      },
      "t_address_payable": {
        "encoding": "inplace",
        "label": "address payable",
        "numberOfBytes": "20"
      },
      "t_array(t_struct(Deeds)66_storage)dyn_storage": {
        "base": "t_struct(Deeds)66_storage",
        "encoding": "dynamic_array",
        "label": "struct Assets.Deeds[]",
        "numberOfBytes": "32"
      },
      "t_bool": {
        "encoding": "inplace",
        "label": "bool",
        "numberOfBytes": "1"
      },
      "t_mapping(t_address,t_struct(Deeds)66_storage)": {
        "encoding": "mapping",
        "key": "t_address",
        "label": "mapping(address => struct Assets.Deeds)",
        "numberOfBytes": "32",
        "value": "t_struct(Deeds)66_storage"
      },
      "t_mapping(t_address,t_uint256)": {
        "encoding": "mapping",
        "key": "t_address",
        "label": "mapping(address => uint256)",
        "numberOfBytes": "32",
        "value": "t_uint256"
      },
      "t_mapping(t_uint256,t_address)": {
        "encoding": "mapping",
        "key": "t_uint256",
        "label": "mapping(uint256 => address)",
        "numberOfBytes": "32",
        "value": "t_address"
      },
      "t_string_storage": {
        "encoding": "bytes",
        "label": "string",
        "numberOfBytes": "32"
      },
      "t_struct(Deeds)66_storage": {
        "encoding": "inplace",
        "label": "struct Assets.Deeds",
        "members": [
          {
            "astId": 51,
            "contract": "contracts/Assets.sol:Assets",
            "label": "_address",
            "offset": 0,
            "slot": "0",
            "type": "t_address_payable"
          },
          {
            "astId": 53,
            "contract": "contracts/Assets.sol:Assets",
            "label": "propertyDescription",
            "offset": 0,
            "slot": "1",
            "type": "t_string_storage"
          },
          {
            "astId": 55,
            "contract": "contracts/Assets.sol:Assets",
            "label": "geo_location",
            "offset": 0,
            "slot": "2",
            "type": "t_uint256"
          },
          {
            "astId": 57,
            "contract": "contracts/Assets.sol:Assets",
            "label": "appxArea",
            "offset": 0,
            "slot": "3",
            "type": "t_uint256"
          },
          {
            "astId": 59,
            "contract": "contracts/Assets.sol:Assets",
            "label": "value",
            "offset": 0,
            "slot": "4",
            "type": "t_uint256"
          },
          {
            "astId": 61,
            "contract": "contracts/Assets.sol:Assets",
            "label": "time",
            "offset": 0,
            "slot": "5",
            "type": "t_uint256"
          },
          {
            "astId": 63,
            "contract": "contracts/Assets.sol:Assets",
            "label": "sell",
            "offset": 0,
            "slot": "6",
            "type": "t_bool"
          },
          {
            "astId": 65,
            "contract": "contracts/Assets.sol:Assets",
            "label": "approved",
            "offset": 1,
            "slot": "6",
            "type": "t_bool"
          }
        ],
        "numberOfBytes": "224"
      },
      "t_uint256": {
        "encoding": "inplace",
        "label": "uint256",
        "numberOfBytes": "32"
      }
    }
  }
}