{
  "address": "0x5ecfC02142074560BDFe86A4E165935eD2ABcB48",
  "abi": [
    {
      "inputs": [],
      "stateMutability": "nonpayable",
      "type": "constructor"
    },
    {
      "inputs": [],
      "name": "AssetNotApproved",
      "type": "error"
    },
    {
      "inputs": [],
      "name": "AssetNotForSale",
      "type": "error"
    },
    {
      "inputs": [],
      "name": "NotOwner",
      "type": "error"
    },
    {
      "inputs": [],
      "name": "NotenoughToken",
      "type": "error"
    },
    {
      "inputs": [],
      "name": "OnlyAdmin",
      "type": "error"
    },
    {
      "anonymous": false,
      "inputs": [
        {
          "indexed": false,
          "internalType": "address",
          "name": "formerOwner",
          "type": "address"
        },
        {
          "indexed": false,
          "internalType": "uint256",
          "name": "assetId",
          "type": "uint256"
        },
        {
          "indexed": false,
          "internalType": "address",
          "name": "newOwner",
          "type": "address"
        },
        {
          "indexed": false,
          "internalType": "uint256",
          "name": "time",
          "type": "uint256"
        }
      ],
      "name": "soldAsset",
      "type": "event"
    },
    {
      "inputs": [
        {
          "internalType": "uint256",
          "name": "_id",
          "type": "uint256"
        }
      ],
      "name": "ApproveAsset",
      "outputs": [],
      "stateMutability": "nonpayable",
      "type": "function"
    },
    {
      "inputs": [
        {
          "internalType": "address",
          "name": "",
          "type": "address"
        }
      ],
      "name": "addressOwnerCount",
      "outputs": [
        {
          "internalType": "uint256",
          "name": "",
          "type": "uint256"
        }
      ],
      "stateMutability": "view",
      "type": "function"
    },
    {
      "inputs": [
        {
          "internalType": "uint256",
          "name": "",
          "type": "uint256"
        }
      ],
      "name": "assetToAddressOwner",
      "outputs": [
        {
          "internalType": "address",
          "name": "",
          "type": "address"
        }
      ],
      "stateMutability": "view",
      "type": "function"
    },
    {
      "inputs": [
        {
          "internalType": "uint256",
          "name": "",
          "type": "uint256"
        }
      ],
      "name": "assets",
      "outputs": [
        {
          "internalType": "address payable",
          "name": "_address",
          "type": "address"
        },
        {
          "internalType": "string",
          "name": "location",
          "type": "string"
        },
        {
          "internalType": "uint256",
          "name": "geo_location",
          "type": "uint256"
        },
        {
          "internalType": "uint256",
          "name": "plot",
          "type": "uint256"
        },
        {
          "internalType": "uint256",
          "name": "value",
          "type": "uint256"
        },
        {
          "internalType": "uint256",
          "name": "time",
          "type": "uint256"
        },
        {
          "internalType": "bool",
          "name": "sell",
          "type": "bool"
        },
        {
          "internalType": "bool",
          "name": "approved",
          "type": "bool"
        }
      ],
      "stateMutability": "view",
      "type": "function"
    },
    {
      "inputs": [
        {
          "internalType": "uint256",
          "name": "_id",
          "type": "uint256"
        }
      ],
      "name": "buy",
      "outputs": [],
      "stateMutability": "payable",
      "type": "function"
    },
    {
      "inputs": [],
      "name": "getAllAssets",
      "outputs": [
        {
          "components": [
            {
              "internalType": "address payable",
              "name": "_address",
              "type": "address"
            },
            {
              "internalType": "string",
              "name": "location",
              "type": "string"
            },
            {
              "internalType": "uint256",
              "name": "geo_location",
              "type": "uint256"
            },
            {
              "internalType": "uint256",
              "name": "plot",
              "type": "uint256"
            },
            {
              "internalType": "uint256",
              "name": "value",
              "type": "uint256"
            },
            {
              "internalType": "uint256",
              "name": "time",
              "type": "uint256"
            },
            {
              "internalType": "bool",
              "name": "sell",
              "type": "bool"
            },
            {
              "internalType": "bool",
              "name": "approved",
              "type": "bool"
            }
          ],
          "internalType": "struct Assets.Deeds[]",
          "name": "",
          "type": "tuple[]"
        }
      ],
      "stateMutability": "view",
      "type": "function"
    },
    {
      "inputs": [
        {
          "internalType": "string",
          "name": "location",
          "type": "string"
        },
        {
          "internalType": "uint256",
          "name": "geo_location",
          "type": "uint256"
        },
        {
          "internalType": "uint256",
          "name": "plot",
          "type": "uint256"
        },
        {
          "internalType": "uint256",
          "name": "value",
          "type": "uint256"
        }
      ],
      "name": "getOwnership",
      "outputs": [],
      "stateMutability": "nonpayable",
      "type": "function"
    },
    {
      "inputs": [
        {
          "internalType": "uint256",
          "name": "_id",
          "type": "uint256"
        }
      ],
      "name": "getmyAsset",
      "outputs": [
        {
          "components": [
            {
              "internalType": "address payable",
              "name": "_address",
              "type": "address"
            },
            {
              "internalType": "string",
              "name": "location",
              "type": "string"
            },
            {
              "internalType": "uint256",
              "name": "geo_location",
              "type": "uint256"
            },
            {
              "internalType": "uint256",
              "name": "plot",
              "type": "uint256"
            },
            {
              "internalType": "uint256",
              "name": "value",
              "type": "uint256"
            },
            {
              "internalType": "uint256",
              "name": "time",
              "type": "uint256"
            },
            {
              "internalType": "bool",
              "name": "sell",
              "type": "bool"
            },
            {
              "internalType": "bool",
              "name": "approved",
              "type": "bool"
            }
          ],
          "internalType": "struct Assets.Deeds",
          "name": "",
          "type": "tuple"
        }
      ],
      "stateMutability": "view",
      "type": "function"
    },
    {
      "inputs": [],
      "name": "giftOwnership",
      "outputs": [],
      "stateMutability": "nonpayable",
      "type": "function"
    },
    {
      "inputs": [],
      "name": "inheritOwnership",
      "outputs": [],
      "stateMutability": "nonpayable",
      "type": "function"
    },
    {
      "inputs": [
        {
          "internalType": "address",
          "name": "",
          "type": "address"
        }
      ],
      "name": "ownersToDeeds",
      "outputs": [
        {
          "internalType": "address payable",
          "name": "_address",
          "type": "address"
        },
        {
          "internalType": "string",
          "name": "location",
          "type": "string"
        },
        {
          "internalType": "uint256",
          "name": "geo_location",
          "type": "uint256"
        },
        {
          "internalType": "uint256",
          "name": "plot",
          "type": "uint256"
        },
        {
          "internalType": "uint256",
          "name": "value",
          "type": "uint256"
        },
        {
          "internalType": "uint256",
          "name": "time",
          "type": "uint256"
        },
        {
          "internalType": "bool",
          "name": "sell",
          "type": "bool"
        },
        {
          "internalType": "bool",
          "name": "approved",
          "type": "bool"
        }
      ],
      "stateMutability": "view",
      "type": "function"
    },
    {
      "inputs": [],
      "name": "partOwnership",
      "outputs": [],
      "stateMutability": "nonpayable",
      "type": "function"
    },
    {
      "inputs": [
        {
          "internalType": "address",
          "name": "_address",
          "type": "address"
        }
      ],
      "name": "retrieveOwnersAssets",
      "outputs": [
        {
          "internalType": "uint256[]",
          "name": "",
          "type": "uint256[]"
        }
      ],
      "stateMutability": "view",
      "type": "function"
    },
    {
      "inputs": [
        {
          "internalType": "uint256",
          "name": "_id",
          "type": "uint256"
        }
      ],
      "name": "sellProperty",
      "outputs": [],
      "stateMutability": "nonpayable",
      "type": "function"
    },
    {
      "inputs": [
        {
          "internalType": "uint256",
          "name": "_id",
          "type": "uint256"
        }
      ],
      "name": "updateValue",
      "outputs": [],
      "stateMutability": "nonpayable",
      "type": "function"
    }
  ],
  "transactionHash": "0xa9baad2820ee5a1a28d52e26d35ebfa9808b6ef37f91fea321adc5c6268a8a74",
  "args": [],
  "numDeployments": 1,
  "solcInputHash": "589054384041ac0dd13b50c777fd087d",
  "bytecode": "0x608060405234801561001057600080fd5b5033600460006101000a81548173ffffffffffffffffffffffffffffffffffffffff021916908373ffffffffffffffffffffffffffffffffffffffff160217905550612320806100616000396000f3fe6080604052600436106100e85760003560e01c8063ce85984f1161008a578063e39659ee11610059578063e39659ee14610305578063f17f9f9c1461031c578063f802f00f14610333578063fd09465814610370576100e8565b8063ce85984f14610224578063cf35bdd014610261578063d6146718146102a5578063d96a094a146102e9576100e8565b806350241e8f116100c657806350241e8f1461017e578063573c0bd3146101955780638e0a9345146101be57806398e909df146101fb576100e8565b80630891d448146100ed578063094157fa1461012a5780632acada4d14610153575b600080fd5b3480156100f957600080fd5b50610114600480360381019061010f91906115e5565b610399565b60405161012191906116da565b60405180910390f35b34801561013657600080fd5b50610151600480360381019061014c9190611728565b6104eb565b005b34801561015f57600080fd5b50610168610646565b6040516101759190611993565b60405180910390f35b34801561018a57600080fd5b506101936107ec565b005b3480156101a157600080fd5b506101bc60048036038101906101b79190611728565b6107ee565b005b3480156101ca57600080fd5b506101e560048036038101906101e09190611728565b6107f1565b6040516101f291906119c4565b60405180910390f35b34801561020757600080fd5b50610222600480360381019061021d9190611728565b610824565b005b34801561023057600080fd5b5061024b600480360381019061024691906115e5565b6108ec565b60405161025891906119ee565b60405180910390f35b34801561026d57600080fd5b5061028860048036038101906102839190611728565b610904565b60405161029c989796959493929190611a71565b60405180910390f35b3480156102b157600080fd5b506102cc60048036038101906102c791906115e5565b610a1e565b6040516102e0989796959493929190611a71565b60405180910390f35b61030360048036038101906102fe9190611728565b610b28565b005b34801561031157600080fd5b5061031a610d2d565b005b34801561032857600080fd5b50610331610d2f565b005b34801561033f57600080fd5b5061035a60048036038101906103559190611728565b610d31565b6040516103679190611ba6565b60405180910390f35b34801561037c57600080fd5b5061039760048036038101906103929190611cfd565b610eb4565b005b60606000600260008473ffffffffffffffffffffffffffffffffffffffff1673ffffffffffffffffffffffffffffffffffffffff1681526020019081526020016000205467ffffffffffffffff8111156103f6576103f5611bd2565b5b6040519080825280602002602001820160405280156104245781602001602082028036833780820191505090505b5090506000805b6000805490508110156104e0578473ffffffffffffffffffffffffffffffffffffffff166003600083815260200190815260200160002060009054906101000a900473ffffffffffffffffffffffffffffffffffffffff1673ffffffffffffffffffffffffffffffffffffffff16036104cd57808383815181106104b2576104b1611d80565b5b60200260200101818152505081806104c990611dde565b9250505b80806104d890611dde565b91505061042b565b508192505050919050565b600015156000828154811061050357610502611d80565b5b906000526020600020906007020160060160019054906101000a900460ff1615150361055b576040517fc92ebfdd00000000000000000000000000000000000000000000000000000000815260040160405180910390fd5b6000818154811061056f5761056e611d80565b5b906000526020600020906007020160000160009054906101000a900473ffffffffffffffffffffffffffffffffffffffff1673ffffffffffffffffffffffffffffffffffffffff163373ffffffffffffffffffffffffffffffffffffffff1614610605576040517f30cd747100000000000000000000000000000000000000000000000000000000815260040160405180910390fd5b60016000828154811061061b5761061a611d80565b5b906000526020600020906007020160060160006101000a81548160ff02191690831515021790555050565b60606000805480602002602001604051908101604052809291908181526020016000905b828210156107e35783829060005260206000209060070201604051806101000160405290816000820160009054906101000a900473ffffffffffffffffffffffffffffffffffffffff1673ffffffffffffffffffffffffffffffffffffffff1673ffffffffffffffffffffffffffffffffffffffff1681526020016001820180546106f490611e55565b80601f016020809104026020016040519081016040528092919081815260200182805461072090611e55565b801561076d5780601f106107425761010080835404028352916020019161076d565b820191906000526020600020905b81548152906001019060200180831161075057829003601f168201915b50505050508152602001600282015481526020016003820154815260200160048201548152602001600582015481526020016006820160009054906101000a900460ff161515151581526020016006820160019054906101000a900460ff1615151515815250508152602001906001019061066a565b50505050905090565b565b50565b60036020528060005260406000206000915054906101000a900473ffffffffffffffffffffffffffffffffffffffff1681565b600460009054906101000a900473ffffffffffffffffffffffffffffffffffffffff1673ffffffffffffffffffffffffffffffffffffffff163373ffffffffffffffffffffffffffffffffffffffff16146108ab576040517f4755657900000000000000000000000000000000000000000000000000000000815260040160405180910390fd5b6001600082815481106108c1576108c0611d80565b5b906000526020600020906007020160060160016101000a81548160ff02191690831515021790555050565b60026020528060005260406000206000915090505481565b6000818154811061091457600080fd5b90600052602060002090600702016000915090508060000160009054906101000a900473ffffffffffffffffffffffffffffffffffffffff169080600101805461095d90611e55565b80601f016020809104026020016040519081016040528092919081815260200182805461098990611e55565b80156109d65780601f106109ab576101008083540402835291602001916109d6565b820191906000526020600020905b8154815290600101906020018083116109b957829003601f168201915b5050505050908060020154908060030154908060040154908060050154908060060160009054906101000a900460ff16908060060160019054906101000a900460ff16905088565b60016020528060005260406000206000915090508060000160009054906101000a900473ffffffffffffffffffffffffffffffffffffffff1690806001018054610a6790611e55565b80601f0160208091040260200160405190810160405280929190818152602001828054610a9390611e55565b8015610ae05780601f10610ab557610100808354040283529160200191610ae0565b820191906000526020600020905b815481529060010190602001808311610ac357829003601f168201915b5050505050908060020154908060030154908060040154908060050154908060060160009054906101000a900460ff16908060060160019054906101000a900460ff16905088565b8060008181548110610b3d57610b3c611d80565b5b906000526020600020906007020160040154341015610b88576040517fa25dc2d800000000000000000000000000000000000000000000000000000000815260040160405180910390fd5b6001151560008281548110610ba057610b9f611d80565b5b906000526020600020906007020160060160009054906101000a900460ff16151514610bf8576040517f3851581300000000000000000000000000000000000000000000000000000000815260040160405180910390fd5b6000808381548110610c0d57610c0c611d80565b5b906000526020600020906007020160000160009054906101000a900473ffffffffffffffffffffffffffffffffffffffff16905060008173ffffffffffffffffffffffffffffffffffffffff1634604051610c6790611eb7565b60006040518083038185875af1925050503d8060008114610ca4576040519150601f19603f3d011682016040523d82523d6000602084013e610ca9565b606091505b5050905080610cb757600080fd5b3460008581548110610ccc57610ccb611d80565b5b906000526020600020906007020160040181905550610cea846111c8565b7ff8466556ca41e07bdf9be20e2fc495ad9a38a37d476cd8c24dc5486231115b0882853342604051610d1f9493929190611ecc565b60405180910390a150505050565b565b565b610d39611514565b60008281548110610d4d57610d4c611d80565b5b9060005260206000209060070201604051806101000160405290816000820160009054906101000a900473ffffffffffffffffffffffffffffffffffffffff1673ffffffffffffffffffffffffffffffffffffffff1673ffffffffffffffffffffffffffffffffffffffff168152602001600182018054610dcd90611e55565b80601f0160208091040260200160405190810160405280929190818152602001828054610df990611e55565b8015610e465780601f10610e1b57610100808354040283529160200191610e46565b820191906000526020600020905b815481529060010190602001808311610e2957829003601f168201915b50505050508152602001600282015481526020016003820154815260200160048201548152602001600582015481526020016006820160009054906101000a900460ff161515151581526020016006820160019054906101000a900460ff1615151515815250509050919050565b60006040518061010001604052803373ffffffffffffffffffffffffffffffffffffffff168152602001868152602001858152602001848152602001838152602001428152602001600015158152602001600015158152509050600081908060018154018082558091505060019003906000526020600020906007020160009091909190915060008201518160000160006101000a81548173ffffffffffffffffffffffffffffffffffffffff021916908373ffffffffffffffffffffffffffffffffffffffff1602179055506020820151816001019081610f9691906120bd565b5060408201518160020155606082015181600301556080820151816004015560a0820151816005015560c08201518160060160006101000a81548160ff02191690831515021790555060e08201518160060160016101000a81548160ff021916908315150217905550505080600160003373ffffffffffffffffffffffffffffffffffffffff1673ffffffffffffffffffffffffffffffffffffffff16815260200190815260200160002060008201518160000160006101000a81548173ffffffffffffffffffffffffffffffffffffffff021916908373ffffffffffffffffffffffffffffffffffffffff160217905550602082015181600101908161109d91906120bd565b5060408201518160020155606082015181600301556080820151816004015560a0820151816005015560c08201518160060160006101000a81548160ff02191690831515021790555060e08201518160060160016101000a81548160ff021916908315150217905550905050600260003373ffffffffffffffffffffffffffffffffffffffff1673ffffffffffffffffffffffffffffffffffffffff168152602001908152602001600020600081548092919061115990611dde565b919050555033600360006001600080549050611175919061218f565b815260200190815260200160002060006101000a81548173ffffffffffffffffffffffffffffffffffffffff021916908373ffffffffffffffffffffffffffffffffffffffff1602179055505050505050565b60008082815481106111dd576111dc611d80565b5b906000526020600020906007020160000160009054906101000a900473ffffffffffffffffffffffffffffffffffffffff169050600260008273ffffffffffffffffffffffffffffffffffffffff1673ffffffffffffffffffffffffffffffffffffffff1681526020019081526020016000206000815480929190611261906121c3565b9190505550336000838154811061127b5761127a611d80565b5b906000526020600020906007020160000160006101000a81548173ffffffffffffffffffffffffffffffffffffffff021916908373ffffffffffffffffffffffffffffffffffffffff160217905550600260003373ffffffffffffffffffffffffffffffffffffffff1673ffffffffffffffffffffffffffffffffffffffff168152602001908152602001600020600081548092919061131a90611dde565b9190505550336003600084815260200190815260200160002060006101000a81548173ffffffffffffffffffffffffffffffffffffffff021916908373ffffffffffffffffffffffffffffffffffffffff1602179055506000828154811061138557611384611d80565b5b9060005260206000209060070201600160003373ffffffffffffffffffffffffffffffffffffffff1673ffffffffffffffffffffffffffffffffffffffff1681526020019081526020016000206000820160009054906101000a900473ffffffffffffffffffffffffffffffffffffffff168160000160006101000a81548173ffffffffffffffffffffffffffffffffffffffff021916908373ffffffffffffffffffffffffffffffffffffffff1602179055506001820181600101908161144d9190612202565b50600282015481600201556003820154816003015560048201548160040155600582015481600501556006820160009054906101000a900460ff168160060160006101000a81548160ff0219169083151502179055506006820160019054906101000a900460ff168160060160016101000a81548160ff02191690831515021790555090505060008083815481106114e8576114e7611d80565b5b906000526020600020906007020160060160006101000a81548160ff0219169083151502179055505050565b604051806101000160405280600073ffffffffffffffffffffffffffffffffffffffff16815260200160608152602001600081526020016000815260200160008152602001600081526020016000151581526020016000151581525090565b6000604051905090565b600080fd5b600080fd5b600073ffffffffffffffffffffffffffffffffffffffff82169050919050565b60006115b282611587565b9050919050565b6115c2816115a7565b81146115cd57600080fd5b50565b6000813590506115df816115b9565b92915050565b6000602082840312156115fb576115fa61157d565b5b6000611609848285016115d0565b91505092915050565b600081519050919050565b600082825260208201905092915050565b6000819050602082019050919050565b6000819050919050565b6116518161163e565b82525050565b60006116638383611648565b60208301905092915050565b6000602082019050919050565b600061168782611612565b611691818561161d565b935061169c8361162e565b8060005b838110156116cd5781516116b48882611657565b97506116bf8361166f565b9250506001810190506116a0565b5085935050505092915050565b600060208201905081810360008301526116f4818461167c565b905092915050565b6117058161163e565b811461171057600080fd5b50565b600081359050611722816116fc565b92915050565b60006020828403121561173e5761173d61157d565b5b600061174c84828501611713565b91505092915050565b600081519050919050565b600082825260208201905092915050565b6000819050602082019050919050565b600061178c82611587565b9050919050565b61179c81611781565b82525050565b600081519050919050565b600082825260208201905092915050565b60005b838110156117dc5780820151818401526020810190506117c1565b60008484015250505050565b6000601f19601f8301169050919050565b6000611804826117a2565b61180e81856117ad565b935061181e8185602086016117be565b611827816117e8565b840191505092915050565b60008115159050919050565b61184781611832565b82525050565b6000610100830160008301516118666000860182611793565b506020830151848203602086015261187e82826117f9565b91505060408301516118936040860182611648565b5060608301516118a66060860182611648565b5060808301516118b96080860182611648565b5060a08301516118cc60a0860182611648565b5060c08301516118df60c086018261183e565b5060e08301516118f260e086018261183e565b508091505092915050565b6000611909838361184d565b905092915050565b6000602082019050919050565b600061192982611755565b6119338185611760565b93508360208202850161194585611771565b8060005b85811015611981578484038952815161196285826118fd565b945061196d83611911565b925060208a01995050600181019050611949565b50829750879550505050505092915050565b600060208201905081810360008301526119ad818461191e565b905092915050565b6119be816115a7565b82525050565b60006020820190506119d960008301846119b5565b92915050565b6119e88161163e565b82525050565b6000602082019050611a0360008301846119df565b92915050565b611a1281611781565b82525050565b600082825260208201905092915050565b6000611a34826117a2565b611a3e8185611a18565b9350611a4e8185602086016117be565b611a57816117e8565b840191505092915050565b611a6b81611832565b82525050565b600061010082019050611a87600083018b611a09565b8181036020830152611a99818a611a29565b9050611aa860408301896119df565b611ab560608301886119df565b611ac260808301876119df565b611acf60a08301866119df565b611adc60c0830185611a62565b611ae960e0830184611a62565b9998505050505050505050565b600061010083016000830151611b0f6000860182611793565b5060208301518482036020860152611b2782826117f9565b9150506040830151611b3c6040860182611648565b506060830151611b4f6060860182611648565b506080830151611b626080860182611648565b5060a0830151611b7560a0860182611648565b5060c0830151611b8860c086018261183e565b5060e0830151611b9b60e086018261183e565b508091505092915050565b60006020820190508181036000830152611bc08184611af6565b905092915050565b600080fd5b600080fd5b7f4e487b7100000000000000000000000000000000000000000000000000000000600052604160045260246000fd5b611c0a826117e8565b810181811067ffffffffffffffff82111715611c2957611c28611bd2565b5b80604052505050565b6000611c3c611573565b9050611c488282611c01565b919050565b600067ffffffffffffffff821115611c6857611c67611bd2565b5b611c71826117e8565b9050602081019050919050565b82818337600083830152505050565b6000611ca0611c9b84611c4d565b611c32565b905082815260208101848484011115611cbc57611cbb611bcd565b5b611cc7848285611c7e565b509392505050565b600082601f830112611ce457611ce3611bc8565b5b8135611cf4848260208601611c8d565b91505092915050565b60008060008060808587031215611d1757611d1661157d565b5b600085013567ffffffffffffffff811115611d3557611d34611582565b5b611d4187828801611ccf565b9450506020611d5287828801611713565b9350506040611d6387828801611713565b9250506060611d7487828801611713565b91505092959194509250565b7f4e487b7100000000000000000000000000000000000000000000000000000000600052603260045260246000fd5b7f4e487b7100000000000000000000000000000000000000000000000000000000600052601160045260246000fd5b6000611de98261163e565b91507fffffffffffffffffffffffffffffffffffffffffffffffffffffffffffffffff8203611e1b57611e1a611daf565b5b600182019050919050565b7f4e487b7100000000000000000000000000000000000000000000000000000000600052602260045260246000fd5b60006002820490506001821680611e6d57607f821691505b602082108103611e8057611e7f611e26565b5b50919050565b600081905092915050565b50565b6000611ea1600083611e86565b9150611eac82611e91565b600082019050919050565b6000611ec282611e94565b9150819050919050565b6000608082019050611ee160008301876119b5565b611eee60208301866119df565b611efb60408301856119b5565b611f0860608301846119df565b95945050505050565b60008190508160005260206000209050919050565b60006020601f8301049050919050565b600082821b905092915050565b600060088302611f737fffffffffffffffffffffffffffffffffffffffffffffffffffffffffffffffff82611f36565b611f7d8683611f36565b95508019841693508086168417925050509392505050565b6000819050919050565b6000611fba611fb5611fb08461163e565b611f95565b61163e565b9050919050565b6000819050919050565b611fd483611f9f565b611fe8611fe082611fc1565b848454611f43565b825550505050565b600090565b611ffd611ff0565b612008818484611fcb565b505050565b5b8181101561202c57612021600082611ff5565b60018101905061200e565b5050565b601f8211156120715761204281611f11565b61204b84611f26565b8101602085101561205a578190505b61206e61206685611f26565b83018261200d565b50505b505050565b600082821c905092915050565b600061209460001984600802612076565b1980831691505092915050565b60006120ad8383612083565b9150826002028217905092915050565b6120c6826117a2565b67ffffffffffffffff8111156120df576120de611bd2565b5b6120e98254611e55565b6120f4828285612030565b600060209050601f8311600181146121275760008415612115578287015190505b61211f85826120a1565b865550612187565b601f19841661213586611f11565b60005b8281101561215d57848901518255600182019150602085019450602081019050612138565b8683101561217a5784890151612176601f891682612083565b8355505b6001600288020188555050505b505050505050565b600061219a8261163e565b91506121a58361163e565b92508282039050818111156121bd576121bc611daf565b5b92915050565b60006121ce8261163e565b9150600082036121e1576121e0611daf565b5b600182039050919050565b6000815490506121fb81611e55565b9050919050565b8181036122105750506122e8565b612219826121ec565b67ffffffffffffffff81111561223257612231611bd2565b5b61223c8254611e55565b612247828285612030565b6000601f8311600181146122765760008415612264578287015490505b61226e85826120a1565b8655506122e1565b601f19841661228487611f11565b965061228f86611f11565b60005b828110156122b757848901548255600182019150600185019450602081019050612292565b868310156122d457848901546122d0601f891682612083565b8355505b6001600288020188555050505b5050505050505b56fea2646970667358221220cd00fb720af8e1e64a8332a0be58942c2e7a608cfe396931a2ebfaf8181d882964736f6c63430008110033",
  "devdoc": {
    "kind": "dev",
    "methods": {},
    "version": 1
  },
  "userdoc": {
    "kind": "user",
    "methods": {},
    "version": 1
  },
  "storageLayout": {
    "storage": [
      {
        "astId": 15,
        "contract": "contracts/Assets.sol:Assets",
        "label": "assets",
        "offset": 0,
        "slot": "0",
        "type": "t_array(t_struct(Deeds)66_storage)dyn_storage"
      },
      {
        "astId": 20,
        "contract": "contracts/Assets.sol:Assets",
        "label": "ownersToDeeds",
        "offset": 0,
        "slot": "1",
        "type": "t_mapping(t_address,t_struct(Deeds)66_storage)"
      },
      {
        "astId": 24,
        "contract": "contracts/Assets.sol:Assets",
        "label": "addressOwnerCount",
        "offset": 0,
        "slot": "2",
        "type": "t_mapping(t_address,t_uint256)"
      },
      {
        "astId": 28,
        "contract": "contracts/Assets.sol:Assets",
        "label": "assetToAddressOwner",
        "offset": 0,
        "slot": "3",
        "type": "t_mapping(t_uint256,t_address)"
      },
      {
        "astId": 40,
        "contract": "contracts/Assets.sol:Assets",
        "label": "owner",
        "offset": 0,
        "slot": "4",
        "type": "t_address"
      }
    ],
    "types": {
      "t_address": {
        "encoding": "inplace",
        "label": "address",
        "numberOfBytes": "20"
      },
      "t_address_payable": {
        "encoding": "inplace",
        "label": "address payable",
        "numberOfBytes": "20"
      },
      "t_array(t_struct(Deeds)66_storage)dyn_storage": {
        "base": "t_struct(Deeds)66_storage",
        "encoding": "dynamic_array",
        "label": "struct Assets.Deeds[]",
        "numberOfBytes": "32"
      },
      "t_bool": {
        "encoding": "inplace",
        "label": "bool",
        "numberOfBytes": "1"
      },
      "t_mapping(t_address,t_struct(Deeds)66_storage)": {
        "encoding": "mapping",
        "key": "t_address",
        "label": "mapping(address => struct Assets.Deeds)",
        "numberOfBytes": "32",
        "value": "t_struct(Deeds)66_storage"
      },
      "t_mapping(t_address,t_uint256)": {
        "encoding": "mapping",
        "key": "t_address",
        "label": "mapping(address => uint256)",
        "numberOfBytes": "32",
        "value": "t_uint256"
      },
      "t_mapping(t_uint256,t_address)": {
        "encoding": "mapping",
        "key": "t_uint256",
        "label": "mapping(uint256 => address)",
        "numberOfBytes": "32",
        "value": "t_address"
      },
      "t_string_storage": {
        "encoding": "bytes",
        "label": "string",
        "numberOfBytes": "32"
      },
      "t_struct(Deeds)66_storage": {
        "encoding": "inplace",
        "label": "struct Assets.Deeds",
        "members": [
          {
            "astId": 51,
            "contract": "contracts/Assets.sol:Assets",
            "label": "_address",
            "offset": 0,
            "slot": "0",
            "type": "t_address_payable"
          },
          {
            "astId": 53,
            "contract": "contracts/Assets.sol:Assets",
            "label": "location",
            "offset": 0,
            "slot": "1",
            "type": "t_string_storage"
          },
          {
            "astId": 55,
            "contract": "contracts/Assets.sol:Assets",
            "label": "geo_location",
            "offset": 0,
            "slot": "2",
            "type": "t_uint256"
          },
          {
            "astId": 57,
            "contract": "contracts/Assets.sol:Assets",
            "label": "plot",
            "offset": 0,
            "slot": "3",
            "type": "t_uint256"
          },
          {
            "astId": 59,
            "contract": "contracts/Assets.sol:Assets",
            "label": "value",
            "offset": 0,
            "slot": "4",
            "type": "t_uint256"
          },
          {
            "astId": 61,
            "contract": "contracts/Assets.sol:Assets",
            "label": "time",
            "offset": 0,
            "slot": "5",
            "type": "t_uint256"
          },
          {
            "astId": 63,
            "contract": "contracts/Assets.sol:Assets",
            "label": "sell",
            "offset": 0,
            "slot": "6",
            "type": "t_bool"
          },
          {
            "astId": 65,
            "contract": "contracts/Assets.sol:Assets",
            "label": "approved",
            "offset": 1,
            "slot": "6",
            "type": "t_bool"
          }
        ],
        "numberOfBytes": "224"
      },
      "t_uint256": {
        "encoding": "inplace",
        "label": "uint256",
        "numberOfBytes": "32"
      }
    }
  }
}